S01700004763634170706C69636174696F6E312E737265635B
S11300000C9434000C943E000C943E000C943E007E
S11300100C943E000C943E000C943E000C943E0064
S11300200C943E000C943E000C943E000C943E0054
S11300300C943E000C943E000C943E000C943E0044
S11300400C943E000C943E000C943E000C943E0034
S11300500C943E000C943E000C943E000C943E0024
S11300600C943E000C943E0011241FBECFEFD8E048
S1130070DEBFCDBF0E945A000C945D000C940000BA
S11300808AB180668AB981E085BD84B5806C84BDFF
S113009084B5836084BD85B5806385BD85B5816085
S11300A085BD85B5816085BD88EC87BD84E688BD46
S11100B0789408950E944000FFCFF894FFCF8B
S9030000FC
