:100000000C9434000C943E000C943E000C943E0082
:100010000C943E000C943E000C943E000C943E0068
:100020000C943E000C943E000C943E000C943E0058
:100030000C943E000C943E000C943E000C943E0048
:100040000C943E000C943E000C943E000C943E0038
:100050000C943E000C943E000C943E000C943E0028
:100060000C943E000C943E0011241FBECFEFD8E04C
:10007000DEBFCDBF0E9448000C945C000C940000D1
:1000800084B18C6684B98CB588658CBD2A9A089534
:100090000E94400080E02E988EBD0DB407FEFDCF7B
:1000A0009EB52E9AE7EAF1E63197F1F700C000001D
:0C00B0008F5F8F3F81F7EECFF894FFCFF9
:00000001FF
