S01700004763634170706C69636174696F6E312E737265635B
S11300000C9434000C943E000C943E000C943E007E
S11300100C943E000C943E000C943E000C943E0064
S11300200C943E000C943E000C943E000C943E0054
S11300300C943E000C943E000C943E000C943E0044
S11300400C943E000C943E000C943E000C943E0034
S11300500C943E000C943E000C943E000C943E0024
S11300600C943E000C943E0011241FBECFEFD8E048
S1130070DEBFCDBF0E9476000C947B000C94000080
S1130080EAE7F0E080818064808380818091780059
S11300902091790090E0922B8C3221E0920718F4A1
S11300A05D985E985F9A9C012D5231402B3231400D
S11300B018F45D985E9A5F988935924018F05D9ABD
S11300C05E985F980895ECE7F0E080818064808317
S11300D0808185608083EAE7F0E0808180688083A6
S11300E0808180838AB1806E8AB908950E946300FA
S10D00F00E944000FDCFF894FFCFFA
S9030000FC
